:0308E60001080006
:03000B000208C523
:0D08C500758BFA758DFFD2B70508D28E3203
:03001B0002088C4C
:10088C00C0E0E5086432700FC28FF58A758C70C2B7
:10089C00B7D28CF508800E0508C28FB2B7758BFAEB
:0808AC00758DFFD28ED0E03201
:030003000208D21E
:0B08D200758A00758C70D28CC2B732A2
:0908DD00C2A0D2B2D2B3C2B7220C
:1008B40075A88F7589191208DDD28CA2B392A08015
:0108C400FA39
:03000000020800F3
:0C080000787FE4F6D8FD758108020847F7
:10080C000208B4E493A3F8E493A34003F68001F246
:10081C0008DFF48029E493A3F85407240CC8C333ED
:10082C00C4540F4420C8834004F456800146F6DFBC
:10083C00E4800B01020408102040809008E6E47E5E
:10084C00019360BCA3FF543F30E509541FFEE493B1
:10085C00A360010ECF54C025E060A840B8E493A378
:10086C00FAE493A3F8E493A3C8C582C8CAC583CAA3
:10087C00F0A3C8C582C8CAC583CADFE9DEE780BE5B
:0108E900000E
:00000001FF
